S02400004B696E657469732D64656661756C742D666C6173682D70726F6772616D2E6865781F
S31520000000E4000020ED030020ED030020ED03002096
S31520000010ED030020ED030020ED030020000000008A
S3152000002000000000000000000000000000000000AA
S31520000030000000000000000000000000000000009A
S31520000040000000000000000000000000000000008A
S31520000050000000000000000000000000000000007A
S31520000060000000000000000000000000000000006A
S31520000070000000000000000000000000000000005A
S31520000080000000000000000000000000000000004A
S31520000090000000000000000000000000000000003A
S315200000A0000000000000000000000000000000002A
S315200000B0000000000000000000000000000000001A
S315200000C0000000000000000000000000000000000A
S315200000D000000000000000000000000000000000FA
S315200000E00000000000000020FD000020BE000000EF
S315200000F0000000000000000000000000024B18462F
S31520000100854600F02FB900BEE4000020044B5B6951
S315200001101A68988142F000421A6000BE704700BFFC
S31520000120E400002043681A694FF0FF321A615A75BD
S31520000130044A002313605360036823F0010303601D
S31520000140704700BF04F00140302303708023037002
S3152000015003781906FCD50378DA0608D403789B06BB
S3152000016007D4007810F0010018BF0A207047092034
S3152000017070470820704710B50446406822682369F6
S3152000018092070CD543F0006342684360FFF7DCFF1B
S3152000019008B1FFF7BBFF236823F00203236010BDDD
S315200001A02DE9F8430368466805698769D0F8148005
S315200001B00446D8062BD5A90702D00220FFF7A6FFB2
S315200001C04FEA980840F20C491AE04D4507D13B68A2
S315200001D003F03003202B02D10C20FFF797FF45F0C8
S315200001E0C0637268736057F8043BB268B3603046E8
S315200001F0FFF7AAFF08B1FFF789FF043508F1FF389A
S31520000200B8F1000FE1D1236823F010032360BDE885
S31520000210F8832DE9F843036845680669D0F8188005
S3152000022047699A06044624D5B30702D00220FFF771
S315200002306DFFBF084FF0807915E046F000736A68BD
S315200002406B60AB68C5F8089058F8043BEA68EB6029
S315200002502846FFF779FF20B10A2808BF0520FFF7B7
S3152000026055FF0436013F002FE7D1236823F02003F2
S315200002702360BDE8F883F8B50446466801694269FB
S31520000280C389006840071CD5DAB18F18013B013FAE
S3152000029021EA03051F430EE045F010637268736080
S315200002A03046FFF751FF20B10A2808BF0620FFF786
S315200002B02DFFE389ED18BD42EED9236823F0040310
S315200002C02360F8BD2DE9F843036846680769456948
S315200002D01A0704462CD57B0702D00220FFF716FF0B
S315200002E00735ED0847F6FF791CE04D4594BF1FFA08
S315200002F085F84FF4004847F08073726873604FEAC0
S31520000300084343F48073B268B3603046FFF71CFF9E
S3152000031020B10A2808BF0620FFF7F8FEC8EB05051E
S3152000032007EBC807002DE0D1236823F008032360DC
S31520000330BDE8F88310B504464068236819060FD532
S3152000034043684FF000434360A36882688360FFF7E9
S31520000350FBFE08B1FFF7DAFE236823F08003236053
S3152000036010BD00001D4B1E4A10B51A601D4B4CF2E5
S3152000037020521A804DF628121A80122223F80E2CAB
S31520000380194B5C69236823F0004323600023A38173
S31520000390636813B90220FFF7B9FE236923F07F4370
S315200003A023F4E00323612046FFF7BCFE2046FFF737
S315200003B0E2FE2046FFF7BEFF2046FFF75CFF204601
S315200003C0FFF780FF2046FFF7EBFE2046FFF721FFD1
S315200003D00020BDE81040FFF799BE00BF08ED00E001
S315200003E0000000200E200540E40000200720FFF733
S309200003F08DBE7047E1
S705200003F3E4
