S02100004B696E657469732D4B4C78782D666C6173682D70726F6772616D2E68657880
S3151FFFFE00E4FEFF1F1902002019020020190200201D
S3151FFFFE10190200201902002019020020000000000D
S3151FFFFE2000000000000000000000000000000000AE
S3151FFFFE30000000000000000000000000000000009E
S3151FFFFE40000000000000000000000000000000008E
S3151FFFFE50000000000000000000000000000000007E
S3151FFFFE60000000000000000000000000000000006E
S3151FFFFE70000000000000000000000000000000005E
S3151FFFFE80000000000000000000000000000000004E
S3151FFFFE90000000000000000000000000000000003E
S3151FFFFEA0000000000000000000000000000000002E
S3151FFFFEB0000000000000000000000000000000001E
S3151FFFFEC0000000000000000000000000000000000E
S3151FFFFED000000000000000000000000000000000FE
S3151FFFFEE00000000000FEFF1FFDFEFF1FBE000000FB
S3151FFFFEF0000000000000000000000000024B181C5D
S3151FFFFF00854645E100BEC046E4FEFF1F074B5B6902
S3151FFFFF105A88198812040A43802109060A431A8040
S3151FFFFF20120C98815A8000BE7047C046E4FEFF1F21
S3151FFFFF30C38882881B0413431A69012252421A611E
S3151FFFFF405A75074B8022D2001A60438802881B040A
S3151FFFFF5013430122934303801B0C43807047C04604
S3151FFFFF600C3000F000B5302202708022031C027095
S3151FFFFF701A7852B2002AFBDA1A780920D10608D45A
S3151FFFFF801A780820910604D418780123184000D048
S3151FFFFF900A2000BD10B58388041CC08800041843BF
S3151FFFFFA023889A0712D543688823DB054360FFF72B
S3151FFFFFB0D9FF002801D0FFF7A9FF638822881B04FA
S3151FFFFFC013430222934323801B0C638010BD000043
S3151FFFFFD0F7B5C58883882D04478A1D43038A3F04C7
S3151FFFFFE0468B1F43038B36041E43C38A828A1B0419
S3151FFFFFF013430288041CD1062CD59B0801931DE0D1
S31520000000154A974207D1336830210B40202B02D165
S315200000100C20FFF77BFFC023DB043B436A686B6041
S3152000002008CEAA68281CAB60FFF79CFF002801D0E9
S31520000030FFF76CFF019A0437013A0192019B002BCE
S31520000040DED1638822881B04134310229343238026
S31520000050D3406380F7BDC0460C040000F7B5C488C2
S3152000006083882404478A1C43038A3F04468B1F4304
S31520000070038B36041E43C38A828A1B0413430288D9
S31520000080051C910628D59B08019319E080239B0423
S315200000903B4362686360A36880235B04A36008CE49
S315200000A0E268201CE360FFF75DFF002804D00A28E1
S315200000B000D10520FFF72AFF019904370139019164
S315200000C0019B002BE2D16B882A881B041343202234
S315200000D093432B801B0C6B80F7BDF8B5C5888388AE
S315200000E0418A2D041D43038AC28A09041943838A3F
S315200000F01204041C1A43C3890088460724D5002A03
S3152000010022D08F18013B0E1C013F9E431F4310E057
S3152000011090231B0533436A68281C6B60FFF722FF78
S31520000120002804D00A2800D10620FFF7EFFEE38935
S31520000130F618BE42ECD9638822881B041343042296
S31520000140934323801B0C6380F8BD70B5468A038ACF
S315200001503604C48A1E43838A24041C430388051C50
S315200001601A0714D50334A40806E008CE013302D0BA
S315200001700620FFF7CBFE013C002CF6D16B882A889F
S315200001801B041343082293432B801B0C6B8070BDEA
S3152000019010B51C4B1C4A1A601C4A002313601C4ACB
S315200001A054696288218812040A4351002280A3815F
S315200001B04A0CE3886280A2881B04134302D10220E2
S315200001C0FFF7A4FE638A228A1B041343114A201CCC
S315200001D0134023821B0C6382FFF7AAFE201CFFF725
S315200001E0D9FE201CFFF779FF201CFFF7AEFF201C4D
S315200001F0FFF7EEFE201CFFF731FF0020FFF786FEFB
S3152000020010BDC04608ED00E000FEFF1F008104403F
S31520000210E4FEFF1FFFFF8F0008B50720FFF776FEDD
S3092000022008BD704738
S70520000223B5
