S02900004B696E657469732D4D4B4D2D465446412D666C6173682D70726F6772616D2D6763632E68657872
S3151FFFFF0044FFFF1F110200201102002011020020D3
S3151FFFFF1000000000000000000000000000000000BD
S3151FFFFF2000000000000000000000000000000000AD
S3151FFFFF30000000000000000000000000000000009D
S3151FFFFF400000000000FFFF1F5DFFFF1FBE00000038
S3151FFFFF50000000000000000000000000024B181CFC
S3151FFFFF60854627E100BEC04644FFFF1F00B5074B6E
S3151FFFFF705B695A88198898811004084380210A06ED
S3151FFFFF8010431880000C588000BEFDE744FFFF1F7B
S3151FFFFF90C3888288190411430A69012253420B61E0
S3151FFFFFA08021064B8A011A604288018813040B437E
S3151FFFFFB001218B431A0C0380428070470C3000F0DF
S3151FFFFFC008B58021302303700170027853B2002BCE
S3151FFFFFD0FBDA0178CA0601D5092003E002789206EB
S3151FFFFFE002D50820FFF7C2FF03780A20DA07F9D4E4
S3151FFFFFF008BD10B50388041C9A0712D58188C088CF
S315200000008822000408434368D3054360FFF7D8FFDE
S315200000106088218803040B4302229343190C238012
S31520000020618010BDF7B5041C478A038A628B008B5A
S315200000303F04E68A1F431104A58A2388014330041E
S3152000004001912843D9062AD586083D1C002E1DD0AD
S315200000500198134AC31B954207D1595930200840AD
S31520000060202802D10C20FFF781FFE088A288C0213A
S3152000007000041043CA042A43416842605B598268DF
S315200000808360FFF79DFF0435013EDFE762882788FE
S31520000090110410253943A9432180E9406180F7BD29
S315200000A00C040000F7B5428A041C038A678B1004EF
S315200000B0E58A1843218BA68A238801903F042804C9
S315200000C00F4330439A0623D585083E1C019AD11B3F
S315200000D07318002D13D0E088A188802200040843DD
S315200000E091040B4342684360836880235A048260EC
S315200000F002CEC268C160FFF763FF013DE6E766886E
S31520000100278835043D43202085432A0C258062809C
S31520000110F7BD70B5041C418AE28A038A2588808A45
S315200001200E0411041E430143E3896D0720D50029DF
S315200001301ED0351C7618013B013E9D431E43B54219
S315200001400DD8E088A18890221305000408432B438C
S3152000015042684360FFF734FFE1896D18EFE7608856
S31520000160268801043143042291430B0C21806380AD
S3152000017070BD38B5418A038A0904C48A828A194324
S3152000018043882404058814431A042A43130710D5E8
S315200001900334A308002B07D010C9013402D006204F
S315200001A0FFF7E4FE013BF5E708218A43150C0280A0
S315200001B0458038BD10B5104A104B11491148124CD4
S315200001C01A60D223114AC181C48103805469201C3C
S315200001D0FFF7DEFE201CFFF70CFF201CFFF799FF20
S315200001E0201CFFF7C6FF201CFFF71CFF201CFFF773
S315200001F059FF0020FFF7BAFE00FFFF1F08ED00E0C1
S3152000020020C5FFFF0030054028D9FFFF44FFFF1F10
S3112000021008B50720FFF7AAFE7047000083
S70520000219BF
