S02500004B696E657469732D465446412D666C6173682D70726F6772616D2D6763632E68657888
S3151FFFFE00E4FEFF1F2D0200202D0200202D020020E1
S3151FFFFE102D0200202D0200202D02002000000000D1
S3151FFFFE2000000000000000000000000000000000AE
S3151FFFFE30000000000000000000000000000000009E
S3151FFFFE40000000000000000000000000000000008E
S3151FFFFE50000000000000000000000000000000007E
S3151FFFFE60000000000000000000000000000000006E
S3151FFFFE70000000000000000000000000000000005E
S3151FFFFE80000000000000000000000000000000004E
S3151FFFFE90000000000000000000000000000000003E
S3151FFFFEA0000000000000000000000000000000002E
S3151FFFFEB0000000000000000000000000000000001E
S3151FFFFEC0000000000000000000000000000000000E
S3151FFFFED000000000000000000000000000000000FE
S3151FFFFEE00000000000FEFF1FFDFEFF1FBE000000FB
S3151FFFFEF0000000000000000000000000024B181C5D
S3151FFFFF0085464FE100BEC046E4FEFF1F074B5B69F8
S3151FFFFF105A88198898811004084380210A061043BE
S3151FFFFF201880000C588000BE7047C046E4FEFF1FB6
S3151FFFFF30C3888288190411430A69012253420B6140
S3151FFFFF404B758021064B8A011A604288018813046C
S3151FFFFF500B4301218B431A0C038042807047C04617
S3151FFFFF600C3000F0302200B5031C02708020187081
S3151FFFFF7019784AB2002AFBDA19780920C90608D46C
S3151FFFFF801A780820910604D418780123184000D048
S3151FFFFF900A2000BD10B5041C8388C0882188000471
S3151FFFFFA018438A0712D588224368D3054360FFF794
S3151FFFFFB0D9FF002801D0FFF7A9FF618820880B040E
S3151FFFFFC0034302229343180C2380608010BD000059
S3151FFFFFD0F0B5041C628A8388C688008A1104678B62
S3151FFFFFE0014385B0258B3604E28A1E4302913B04EB
S3151FFFFFF0A08A21882B43150403930543C90630D5D1
S31520000000AF08029D0197019B002B21D00399029FE7
S31520000010154BCF1B9D4207D17A59302010402028FE
S3152000002002D10C20FFF772FFC021CB042B4372684C
S3152000003073607F59B268301CB760FFF793FF0028C2
S3152000004001D0FFF763FF0198043501380190DAE704
S315200000506088268805041022354395432580D5409F
S31520000060658005B0F0BDC0460C040000F7B5041C41
S31520000070628A8388C588008A1104678B0143268B90
S315200000802D04E28A1D4301913804A38A2188304336
S31520000090160400901E43890628D5B608071C019829
S315200000A0009BC21AD119002E17D08022900401433A
S315200000B06A6869608021AB684B04AB6001CFEA684F
S315200000C0E860281CFFF74EFF002804D00A2800D13C
S315200000D00520FFF71BFF013EE1E7678825883E04E0
S315200000E02E4320208643330C26806380F7BDF8B547
S315200000F0041C618A8388C688008A0F04E28A074323
S31520000100A58A2088360411041E432943E38945071E
S3152000011024D5002922D03D1C7F18013B013F9D4359
S315200001201F43BD4211D8902318052843726870607A
S31520000130301CFFF717FF002804D00A2800D106201C
S31520000140FFF7E4FEE289AD18EBE7678826883D04D1
S31520000150354304229543290C25806180F8BD70B56E
S31520000160041C468AE58A038A2288808A3604290462
S315200001701E430143120714D503318D08002D07D0E5
S3152000018004CE531C02D00620FFF7C0FE013DF5E742
S3152000019063882688180430430825A843010C20804C
S315200001A0618070BD10B51C4B1C4A1D4900201D4C9A
S315200001B01A60086064696288238812041A43510011
S315200001C02280E288A081A0884B0C11046380014321
S315200001D002D10220FFF79AFE638A208A1904124A66
S315200001E001431140080C21826082201CFFF7A0FEEB
S315200001F0201CFFF7CFFE201CFFF779FF201CFFF7FE
S31520000200AEFF201CFFF7E4FE201CFFF72FFF002087
S31520000210FFF77CFE10BDC04608ED00E000FEFF1F84
S3152000022000810440E4FEFF1FFFFF8F0008B5072072
S30D20000230FFF76CFE08BD7047C4
S70520000237A1
