S02500004B696E657469732D4654464C2D666C6173682D70726F6772616D2D6763632E6865787D
S31520000000E4000020DD030020DD030020DD030020C6
S31520000010DD030020DD030020DD03002000000000BA
S3152000002000000000000000000000000000000000AA
S31520000030000000000000000000000000000000009A
S31520000040000000000000000000000000000000008A
S31520000050000000000000000000000000000000007A
S31520000060000000000000000000000000000000006A
S31520000070000000000000000000000000000000005A
S31520000080000000000000000000000000000000004A
S31520000090000000000000000000000000000000003A
S315200000A0000000000000000000000000000000002A
S315200000B0000000000000000000000000000000001A
S315200000C0000000000000000000000000000000000A
S315200000D000000000000000000000000000000000FA
S315200000E00000000000000020FD000020BE000000EF
S315200000F0000000000000000000000000024B18462F
S31520000100854600F027B900BEE4000020044B59695B
S315200001100A68888142F00040086000BE704700BF30
S31520000120E400002043681A694FF0FF321A615A75BD
S31520000130044B002119605960026822F00101016018
S31520000140704700BF04F00140302380210370017006
S3152000015002781306FCD5037803F01001CAB25AB907
S31520000160037803F02001CAB242B9007810F0010FDB
S315200001700CBF00200A2070470920704708207047CE
S3152000018010B5044640682268236992070CD543F0CF
S31520000190006142684160FFF7D7FF08B1FFF7B6FF5D
S315200001A0206820F00203236010BD2DE9F843036880
S315200001B045680769D0F81890D0F814800446D80608
S315200001C030D5B90702D00220FFF7A0FF4FEA9808E2
S315200001D03E46B8F1000F21D040F20C4296420AD199
S315200001E0C7EB0903D3F80C0400F03001202902D113
S315200001F00C20FFF78BFF6A6846F0C063C7EB090245
S315200002006B609059AA68A8602846FFF79DFF08B141
S31520000210FFF77CFF043608F1FF38DAE7206820F084
S3152000022010012160BDE8F8832DE9F843036845688D
S315200002300769D0F81890D0F814809B06044628D574
S31520000240BE0702D00220FFF761FF4FEA98083E461C
S31520000250B8F1000F19D046F000736A686B604FF052
S315200002608072C7EB0900AB68AA608159EA68E96029
S315200002702846FFF769FF20B10A2808BF0520FFF7A7
S3152000028045FF043608F1FF38E2E7206820F0200118
S315200002902160BDE8F883F8B50446466801694269DD
S315200002A0C389006840071DD5E2B1013B8F1821EABA
S315200002B00305791E43EA0107BD420FD845F01063B6
S315200002C0726873603046FFF73FFF20B10A2808BFE7
S315200002D00620FFF71BFFE1896D18EDE7226822F063
S315200002E004002060F8BDF8B50368066947691B0756
S315200002F0044616D5B50702D00220FFF707FF0337BD
S31520000300BF080025BD4208D056F82520531C02D030
S315200003100620FFF7FBFE0135F4E7206820F00801F0
S315200003202160F8BD10B50446406823681A060FD52B
S315200003304FF0004143684160A36882688360FFF7FD
S3152000034003FF08B1FFF7E2FE206820F0800222605A
S3152000035010BD000010B51D4B1D4A1E481A604CF2F8
S3152000036020514DF6281412231B4A0180048020F8C0
S315200003700E3C54692068626820F000410023216009
S31520000380A38112B90220FFF7C1FE206920F07F4128
S3152000039021F4E00323612046FFF7C4FE2046FFF741
S315200003A0EFFE2046FFF7BEFF2046FFF774FF2046EC
S315200003B0FFF799FF2046FFF7F8FE2046FFF734FFA8
S315200003C00020BDE81040FFF7A1BE00BF08ED00E009
S315200003D0000000200E200540E40000200720FFF743
S309200003E095BE7047E9
S705200003E3F4
