S02600004B696E657469732D46544D52482D666C6173682D70726F6772616D2D6763632E68657827
S3151FFFFE00D8FEFF1FDD020020DD020020DD020020DD
S3151FFFFE1000000000000000000000000000000000BE
S3151FFFFE2000000000000000000000000000000000AE
S3151FFFFE30000000000000000000000000000000009E
S3151FFFFE40000000000000000000000000000000008E
S3151FFFFE50000000000000000000000000000000007E
S3151FFFFE60000000000000000000000000000000006E
S3151FFFFE70000000000000000000000000000000005E
S3151FFFFE80000000000000000000000000000000004E
S3151FFFFE90000000000000000000000000000000003E
S3151FFFFEA0000000000000000000000000000000002E
S3151FFFFEB0000000000000000000000000000000001E
S3151FFFFEC0000000000000000000000000000000000E
S3151FFFFED0000000000000000000FEFF1FF1FEFF1FD5
S3151FFFFEE0BE00000000000000000000000000000030
S3151FFFFEF0024B181C8546A7E100BEC046D8FEFF1F52
S3151FFFFF0000B5074B5B695A88198898811004084307
S3151FFFFF1080210A0610431880000C588000BEFDE79B
S3151FFFFF20D8FEFF1FC388828801881B0400B51343B1
S3151FFFFF30C90711D5FF210F221A7019725972BC23D7
S3151FFFFF4006491A020A6043880288190411430122CF
S3151FFFFF5091430B0C0180438000BDC0460C3000F05F
S3151FFFFF6008B58023837183794F22191C9143FAD0D9
S3151FFFFF7008209A0602D4D90602D50920FFF7C0FF2B
S3151FFFFF8008BD10B5041C8388C088618A228A0004B5
S3151FFFFF9018430B041343228891071FD53021817104
S3151FFFFFA05A0002D5802211040B43002282700921B9
S3151FFFFFB01A0C8172D1B2C1720122190A8270DBB289
S3151FFFFFC0CAB28272C372FFF7CBFF618820880B0408
S3151FFFFFD0034302229343180C2380608010BDF7B59D
S3151FFFFFE0051CC4886E8A6F8B8388298B008A2A8893
S3151FFFFFF0240436043F041C4306430F43D00600D494
S3152000000097E03023A371A88AEA8A710044D41204A7
S315200000101043800883B2591E8AB20092002B43D027
S3152000002000200621320CA070D3B2A172310AE372ED
S31520000030CAB20120F3B2A070A272E372386802211C
S31520000040020AA170D3B2C1B20322A372E172030ED7
S31520000050A270000C009AC1B2A372E172002A01D1EB
S31520000060043713E07B680420190AA070CAB2D8B2FC
S315200000700521A272E072A17000991A0E01391B0C9B
S31520000080A272D8B28AB20837E0720092201CFFF71B
S3152000009067FF0836009BBEE7019000960199019BF9
S315200000A001398AB2002B09D16E882C883704102397
S315200000B027439F432F80DF406F803AE00098B91B8B
S315200000C00B580021A1701121A172010CC9B2E17255
S315200000D0000A0121A170C1B26846A17201780220EE
S315200000E0E172D9B2A070E172002A02D100230193F5
S315200000F018E00320013A190AA07092B2C8B2E07241
S31520000100002AF3D00421013A180CA17092B2C1B290
S31520000110E172002AEAD0013A92B20520190EA070A7
S315200001200192E172201CFFF71BFF009B0433009312
S31520000130B4E7F7BD70B5428A038A1204458BC48A98
S315200001401A43018B868A03882D0424040D433443E5
S31520000150990616D5131CA418A34212D0A91A1E78E4
S31520000160595C01338E4202D00520FFF7C9FE418833
S315200001700688090431432026B1430180090C4180B9
S31520000180EAE770BDF7B5041C618A8388C588008AB2
S315200001900F04E28A0743A68A20882D0411041D43F2
S315200001A03143E38946072DD500292BD03E1C7F18E5
S315200001B0013B013F9E433B4301930A27730000D531
S315200001C012273022AA7101998E4212D8310C0022B0
S315200001D0AA70CBB2320AAF720120EB72D1B2F3B25F
S315200001E0A870A972281CEB72FFF7BAFEE0893618B0
S315200001F0E9E76688258833042B43042083431F0CB4
S3152000020023806780F7BD38B5418A038A0904C48AEA
S31520000210828A194343882404058814431A042A43EE
S31520000220130710D50334A308002B07D010C90134B7
S3152000023002D00620FFF764FE013BF5E708218A433A
S31520000240150C0280458038BD38B51D4A1D4B1E4809
S315200002501E491A601E4C42884180428801234480F0
S31520000260202281888480437002701A4800254469C0
S315200002706388218818040843638A4200510C208031
S31520000280208A154A6180190401431140080C2182F5
S315200002906082A581201CFFF745FE201CFFF771FE1A
S315200002A0201CFFF76FFF201CFFF7ADFF201CFFF778
S315200002B096FE201CFFF73EFF281CFFF721FEC046B6
S315200002C000FEFF1F08ED00E000200540C5200000CD
S315200002D0D9280000D8FEFF1FFFFF8F0008B5072092
S30D200002E0FFF70EFE7047000037
S705200002E5F3
