S02100004B696E657469732D4B4C78782D666C6173682D70726F6772616D2E68657880
S315200000003C0B0020150B0020150B0020150B0020A3
S31520000010150B0020150B0020150B0020150B0020BA
S3152000002000000000000000000000000000000000AA
S31520000030000000000000000000000000000000009A
S31520000040000000000000000000000000000000008A
S31520000050000000000000000000000000000000007A
S31520000060000000000000000000000000000000006A
S31520000070000000000000000000000000000000005A
S31520000080000000000000000000000000000000004A
S31520000090000000000000000000000000000000003A
S315200000A0000000000000000000000000000000002A
S315200000B0000000000000000000000000000000001A
S315200000C0000000000000000000000000000000000A
S315200000D000000000000000000000000000000000FA
S315200000E00000000000000000002934D00123002277
S315200000F010B488422CD301242407A14204D2814281
S3152000010002D209011B01F8E7E400A14204D2814290
S3152000011002D249005B00F8E7884201D3401A1A430D
S315200001204C08A04202D3001B5C0822438C08A04244
S3152000013002D3001B9C082243CC08A04202D3001BFA
S31520000140DC082243002803D01B0901D00909E3E774
S31520000150101C10BC7047002801D00020C04307B4F3
S31520000160024802A14018029003BDC04619000000B3
S315200001700029F0D003B5FFF7B9FF0EBC4243891A18
S30D200001801847C0467047C0462F
S3152000018890B585B000AF7860104B5B69FB607B68E3
S315200001989AB2FB689A81FB681A885B881B0413430A
S315200001A8802212061A43FB681104090C1C880020B9
S315200001B8204001431980120C5888002101400A4327
S315200001C85A8000BEBD4605B090BDC0463C0B0020F7
S315200001D890B585B000AF78607B689A88DB881B0469
S315200001E81343FB601A4B00221A60FB681A7C012114
S315200001F849420A431A745A7C012149420A435A74CD
S315200002089A7C012149420A439A74DA7C012149429F
S315200002180A43DA74FB68FF225A757B681A885B885A
S315200002281B0413430122191C91430A1C7B681104E1
S31520000238090C1C880020204001431980120C58887C
S31520000248002101400A435A80BD4605B090BDC046EC
S309200002580C3000F050
S3152000025C80B582B000AF78607B6830221A707B68DC
S3152000026C80221A70C0467B681B78DBB25BB2002BEF
S3152000027CF9DA7B681B781A1C1023134001D009234A
S3152000028C12E07B681B781A1C2023134001D008230C
S3152000029C0AE07B681B781A1C01231340DBB2002B67
S315200002AC01D00A2300E00023181CBD4602B080BDF5
S315200002BC90B587B000AF78607B689A88DB881B0482
S315200002CC13437B617B681A8A5B8A1B0413433B614D
S315200002DC7B681A885B881B0413431A1C0223134061
S315200002EC46D03B69802212051A437B69FF211140B7
S315200002FC1C790020204001431971100AFF2101406E
S3152000030C5C790020204001435971100CFF210140DB
S3152000031C9C790020204001439971120ED879002136
S3152000032C01400A43DA717B69181CFFF791FF031C05
S3152000033CFB60FB68002B03D0FB68181CFFF71EFF25
S3152000034C7B681A885B881B0413430222191C914371
S3152000035C0A1C7B681104090C1C88002020400143D0
S3152000036C1980120C5888002101400A435A8000E05B
S30D2000037CC046BD4607B090BD46
S3152000038490B589B000AF78607B689A88DB881B04B7
S3152000039413433B617B681A8A5B8A1B041343FB6104
S315200003A47B681A8B5B8B1B041343BB617B689A8A1D
S315200003B4DB8A1B0413439B087B610023FB607B6859
S315200003C41A885B881B0413431A1C1023134000D17C
S315200003D48CE0FA690323134066D00220FFF7D2FE8D
S315200003E462E0FA69434B9A4208D1BB691A68302302
S315200003F41340202B02D10C20FFF7C4FEFB69C02238
S31520000404D2041A433B69FF2111401C790020204065
S3152000041401431971100AFF2101405C790020204014
S3152000042401435971100CFF2101409C790020204082
S3152000043401439971120ED879002101400A43DA71D9
S31520000444BB691A683B69FF2111401C7A00202040B1
S3152000045401431972100AFF2101405C7A00202040D2
S3152000046401435972100CFF2101409C7A0020204040
S3152000047401439972120ED87A002101400A43DA7296
S315200004843B69181CFFF7E8FE031CFB60FB68002B86
S3152000049403D0FB68181CFFF775FEFB690433FB6168
S315200004A4BB690433BB6100E0C0467B695A1E934195
S315200004B4DBB27A69013A7A61002B92D17B681A8879
S315200004C45B881B0413431022191C91430A1C7B6866
S315200004D41104090C1C880020204001431980120CA9
S315200004E45888002101400A435A8000E0C046BD4690
S30D200004F409B090BD0C040000C4
S315200004FC90B589B000AF78607B689A88DB881B043E
S3152000050C1343FB607B681A8A5B8A1B041343FB61CB
S3152000051C7B681A8B5B8B1B041343BB617B689A8AA3
S3152000052CDB8A1B0413439B087B617B681A885B88D8
S3152000053C1B0413431A1C2023134000D197E0FA699D
S3152000054C0323134071D00220FFF718FE6DE0FB69E0
S3152000055C802292041A43FB68FF2111401C7900204B
S3152000056C204001431971100AFF2101405C790020BB
S3152000057C204001435971100CFF2101409C79002029
S3152000058C204001439971120ED879002101400A436B
S3152000059CDA71FB68197A00220A401A72597A0022FB
S315200005AC0A405A72997A00220A409A72D97A002203
S315200005BC0A4001210A43DA72BB691A68FB68FF21DB
S315200005CC11401C7B0020204001431973100AFF2187
S315200005DC01405C7B0020204001435973100CFF2105
S315200005EC01409C7B0020204001439973120ED87B3E
S315200005FC002101400A43DA73FB68181CFFF728FE1A
S3152000060C031C3B613B69002B08D03B690A2B01D1AB
S3152000061C05233B613B69181CFFF7B0FDFB690433CE
S3152000062CFB61BB690433BB6100E0C0467B695A1E83
S3152000063C9341DBB27A69013A7A61002B87D17B68C8
S3152000064C1A885B881B0413432022191C91430A1C0D
S3152000065C7B681104090C1C8800202040014319805A
S3152000066C120C5888002101400A435A8000E0C046EB
S30D2000067CBD4609B090BDC04641
S3152000068490B589B000AF78607B689A88DB881B04B4
S3152000069413437B617B681A8A5B8A1B041343FB61C1
S315200006A47B689A8ADB8A1B0413431A1CFB69D318BA
S315200006B4013B3B617B68DB89013BFB607B681A88D5
S315200006C45B881B0413431A1C0423134064D07B68E1
S315200006D49A8ADB8A1B04134360D0FB68DA43FB69DE
S315200006E41340FB613A69FB6813433B6138E0FB69BD
S315200006F4902212051A437B69FF2111401C790020A0
S31520000704204001431971100AFF2101405C79002021
S31520000714204001435971100CFF2101409C7900208F
S31520000724204001439971120ED879002101400A43D1
S31520000734DA717B69181CFFF78FFD031CBB61BB694B
S31520000744002B08D0BB690A2B01D10623BB61BB69E8
S31520000754181CFFF717FD7B68DB89FA69D318FB6140
S31520000764FA693B699A42C2D97B681A885B881B045A
S3152000077413430422191C91430A1C7B681104090C97
S315200007841C880020204001431980120C588800211F
S3152000079401400A435A8002E0C04600E0C046BD46F6
S309200007A409B090BD25
S315200007A890B589B000AF78607B689A88DB881B048F
S315200007B81343FB607B681A8A5B8A1B041343FB611D
S315200007C87B689A8ADB8A1B0413431A1C5B4B1B68BB
S315200007D8D3185A1E594B1B68101C191CFFF780FC8E
S315200007E8031CBB617B681A885B881B0413431A1C8D
S315200007F80823134000D19CE0504B1B68013BFA6943
S31520000808134000D17AE00220FFF7BAFC76E03B1CC1
S3152000081812334B4A1A803B1C12331A88BB699A42F8
S3152000082803D93B1C1233BA691A80FB698022520409
S315200008381A43FB68FF2111401C7900202040014300
S315200008481971100AFF2101405C79002020400143DC
S315200008585971100CFF2101409C790020204001434A
S315200008689971120ED879002101400A43DA713B1C8E
S3152000087812331B881B048022520013431A1CFB6860
S31520000888FF2111401C7A0020204001431972100ACA
S31520000898FF2101405C7A0020204001435972100C48
S315200008A8FF2101409C7A0020204001439972120EB4
S315200008B8D87A002101400A43DA72FB68181CFFF730
S315200008C8C9FC031C7B617B69002B08D07B690A2B3A
S315200008D801D106237B617B69181CFFF751FC3B1C61
S315200008E812331B88BA69D31ABB613B1C12331A8888
S315200008F8124B1B685343FA69D318FB61BB69002B5B
S3152000090885D17B681A885B881B0413430822191C27
S3152000091891430A1C7B681104090C1C88002020407E
S3152000092801431980120C5888002101400A435A8035
S3152000093800E0C046BD4609B090BDC046540B002015
S309200009480080FFFF07
S3152000094C90B585B000AF78607B689A88DB881B04ED
S3152000095C1343FB607B681A885B881B0413431A1CA1
S3152000096C802313405CD0FB68197900220A401A7147
S3152000097C597900220A405A71997900220A409A71B3
S3152000098CD97900220A40802149420A43DA717B68D0
S3152000099C1A895B891B0413431A1CFB68FF2111401F
S315200009AC1C7A0020204001431972100AFF210140B5
S315200009BC5C7A0020204001435972100CFF21014023
S315200009CC9C7A0020204001439972120ED87A00217D
S315200009DC01400A43DA72FB68181CFFF739FC031C2A
S315200009ECBB60BB68002B03D0BB68181CFFF7C6FB8B
S315200009FC7B681A885B881B0413438022191C91433D
S31520000A0C0A1C7B681104090C1C8800202040014319
S31520000A1C1980120C5888002101400A435A8000E0A4
S30D20000A2CC046BD4605B090BD91
S31520000A3490B583B000AF314B314A1A60314B002256
S31520000A441A60314B5B697B607B681A885B881B0460
S31520000A5413435B005A087B681104090C1C88002088
S31520000A64204001431980120C5888002101400A4372
S31520000A745A807B6800229A817B689A88DB881B04CB
S31520000A84134302D10220FFF77DFB7B681A8A5B8A17
S31520000A941B0413431A1C1D4B1A407B681104090CB2
S31520000AA41C8A0020204001431982120C588A0021F6
S31520000AB401400A435A827B68181CFFF78BFB7B682C
S31520000AC4181CFFF7F9FB7B68181CFFF73DFF7B68B2
S31520000AD4181CFFF7D5FD7B68181CFFF763FE7B689F
S31520000AE4181CFFF74DFC7B68181CFFF705FD00203A
S31520000AF4FFF748FBBD4603B090BDC04608ED00E0B5
S31520000B0400000020008104403C0B0020FFFF8F00E2
S31520000B1480B500AF0720FFF735FBBD4680BDC04634
S31520000B24024B181C8546FFF783FF00BEE800002011
S30D20000B3480B500AFBD4680BD6F
S31520000B3C00000020250B0020BE0000000000000055
S30D20000B4C00000000000000007B
S30920000B54080000006F
S70520000B359A
